:040000000C944E000E
:100004000C947B000C948B000C9400000C94000066
:100014000C9400000C9400000C9400000C9400005C
:100024000C9400000C9400000C9400000C9400004C
:100034000C9400000C9400000C9400000C9400003C
:100044000C9400000C9400000C9400000C9400002C
:100054003C003C0019001027E80364000A0001007A
:10006400001000011000010000000000253032647F
:100074003A253032643A2530326400253032643A0D
:10008400253032643A30300080C0040004006C0033
:1000940002008E028C000000F894EE27ECBBF1E025
:1000A400FBBFEBBFE5BF8DE0A2E0BB27ED938A95D4
:1000B400E9F780E098E0A0E6ED930197E9F7EEE830
:1000C400F0E085919591009761F0A591B591059027
:1000D4001590BF01F00105900D920197E1F7FB0126
:1000E400F0CFEFE5EDBFE8E0EEBFC0E6D2E00C9460
:1000F400C000EA93FA93EFB7EA93EBE3F0E04E160D
:100104005F0624F4F20131962F0102C044245524E1
:100114000FC0EA93FA93EFB7EA93E7E1F0E06E16C3
:100124007F0624F4F30131963F0102C0662477244C
:10013400E991EFBFF991E99118950E94A6036D9199
:100144007C91E881F981A4E5B0E0EE0FFF1FEA0F8E
:10015400FB1F0E941B04DB010E9411040C942C035E
:100164000E94A603E0E0F0E0ED93FC930C942C03D2
:100174000E94A6030E94B1030C942C03E0E0EBBBA5
:10018400EFEFEABBECE0E2BBE0E0E1BBEBB7E06C35
:10019400EBBFEAE0E5BFE0E0E4BFE0ECEABFA4E1E6
:1001A4000E9460030E942E037894A8EEB3E00E949C
:1001B400FA03A0E0B0E0DCDFA0E00E94B70331F076
:1001C400A1E0B0E0D5DFA0E0B0E0CADFA1E00E948A
:1001D400B70331F0A2E0B0E0CBDFA1E0B0E0C0DFD4
:1001E400A2E00E94B70349F0A0E0B0E0B9DFA1E0CB
:1001F400B0E0B6DFA2E0B0E0B3DF0E942E03E4E09B
:10020400EA93A0E00E942103E0E6F2E0FA93EA9385
:10021400E0E7F0E0FA93EA93E0918C02F0918D022A
:100224000E94BC03E0918A02F0918B020E94BC03FD
:10023400E0918802F09189020E94BC038CE00E9444
:10024400CD026096A0E6B2E00E944F03E4E0EA9398
:10025400A1E00E942103E4E7F2E0FA93EA93EFE7D6
:10026400F0E0FA93EA93F3010E94BC03F2010E94C6
:10027400BC0388E00E94CD022C96A4E7B2E00E9461
:100284004F03AAE0B0E00E94FA03E0918C02F091DF
:100294008D02E619F70949F4E0918A02F0918B0284
:1002A400E419F50911F4E1E001C0E0E0E03011F4F3
:1002B400DB9801C0DB9A79CFFFCFBA93AA931A9344
:1002C4000A93AA81BB8112960E941704309729F1E0
:1002D400AA81BB8114960E9417048F01309761F0A4
:1002E4000230E0E01E0780F0F80131978F01AA8107
:1002F400BB811496ED93FC93AA81BB8112960E9454
:10030400B1033197AC81A083AA81BB810E941704F9
:10031400FF2312F00E94B10306C0AA81BB81EFEF54
:10032400FFEFED93FC931981088125960895BA9304
:10033400AA9326970E94240410E0AC85BD85E0E0D2
:10034400F0E0ED93FC93EA89FB893196EA8BFB8B11
:100354003197E4912E2FE03009F415C1E12FE030FC
:1003640039F4253211F411E002C00E94C1030AC11C
:10037400E130A9F4253219F40E94C10302C112E04C
:1003840040E000E02D3211F401E0FCC02B3211F406
:100394004BE2F8C0203211F440E2F4C002C0E23073
:1003A40039F450E013E0203311F40068EBC003C0CB
:1003B400E33009F0E7C0203310F02A3308F007C017
:1003C400AAE05A9F502DE22FE0535E0FDBC0E22FCC
:1003D400E33649F40E94C803E889F989A481AA9301
:1003E4000E94CE03CEC0E33741F40E94C8030E94AA
:1003F400D4030E948D031E2F0AC0E03761F40E94CB
:10040400C8030E94D4030E9499031E2F086002604F
:100414000F7730E034C0E43611F0E93611F40460AB
:1004240002C0E53731F4EAE5F0E0EE83FF8315E03E
:100434000CC0E83511F4086003C0E83709F0A1C026
:10044400E4E6F0E0EE83FF8314E002FF14C00E94B0
:10045400C8030E94DE03AB85AA233AF4EA85FB8530
:100464000E940804EA87FB874DE2403011F01F5FC9
:1004740001C00B7F04C00E94C8030E94DE0300FD7C
:1004840011C0151778F407FF08C002FF04C00B7FE2
:10049400242F115001C020E301C020E20E94C103B7
:1004A4005150EFCF312F01FF17C03030A1F003FFBF
:1004B40006C0EE81FF812591EE83FF8305C0AE81E6
:1004C400BF812D91AE83BF830E94C103503009F0D8
:1004D40051503150EACF4BC020E3EE81FF810E949E
:1004E4001B04E887F987EE81FF813296EE83FF8350
:1004F400E885F985AA85BB85AE17BF0750F02F5F45
:10050400A885B985EA85FB85EA1BFB0BEA87FB878F
:10051400EFCF2A3328F003FF02C0295F01C0295D11
:1005240004FD1AC0213320F4A885B985119709F474
:1005340009C0531710F000FF01C013C020E207FFE9
:100544000BC020E3006102FF07C00B7F4A930E94A7
:10055400CE03503009F051500E94C103503009F0CD
:1005640051503150A885B985129708F0B5CF00FFD6
:1005740008C0503031F05150E0E2EA930E94CE03BB
:10058400F8CF10E0E0CEAC85BD850E9417040E9430
:100594002B0464960895FF92F82E26970E94260451
:1005A4000E94E603309719F4EFEFFFEF23C0DE015A
:1005B40016960E9404048D010E94E603EE83FF83D5
:1005C400E0E0E887E987DE011A960E9404040E94AD
:1005D4001704FA93EA931A930A93EFE5F1E0FA9376
:1005E400EA93DE011A96A3DE9F01AE81BF81E0E0AB
:1005F400EC93F9010E942D042A96FF900895AA9382
:10060400EBB3EF70AE2FE881E07FEA2BEBBB82E027
:100614008A95F1F7DA9A82E08A95F1F7DA9882E01E
:100624008A95F1F776C0AA93A881E9DFE881E2957B
:10063400E883A881E4DF81E18A95F1F76AC0AA938F
:10064400E881F0E0E257FD4FE081A981AE0FEBDFD6
:100654009980888022960895A2E00E94ED03ACE080
:10066400E2DFA1E00E94ED03E0E08E2E9E2E0895CD
:10067400AA93A881AA3011F09B1448F0E0E0EA9311
:100684008394A82DDCDFA881AA3009F442C0939496
:10069400D89AA881C8DFD8983CC0BA93AA931A9371
:1006A400A981BA81ED91A983BA831E2FE03019F094
:1006B400A12FDEDFF5CF188123960895AA93EAB31C
:1006C400E06FEABBD29AD09AD19ADA98D898D9989E
:1006D400B880E881E058E0939002E881E054E09328
:1006E4009102A4E1B0E00E94FA030E94F3030E9485
:1006F400F3030E94F303A0E282DF81E28A95F1F71B
:10070400A8E291DFA4E08FDFA5E88DDFA6E08BDF10
:10071400A3DF21960895BA93AA93A991B991EE27DC
:10072400FF276D91662311F03196FBCF0895BA939C
:10073400AA93AA27BB27E991F9910590002011F00B
:100744001196FBCFFD010895BA93AA93E881F9812C
:10075400A8E8B2E0EE0FFF1FAE0FBF1F0895ED91A2
:10076400FD913196FE93EE930895B0E00E949F00B0
:10077400E03008950E940C040E941F0408952A93F7
:10078400AD85BE85EF85F88909950895E889F989CD
:100794003497E88BF98B0895AD85BE85EF85F8898C
:1007A40009950895A889B98914960E941704EE83BF
:1007B400FF83AE81BF810895A889B98914960E94E8
:1007C4001704EA87FB870895DE011C960E9404043F
:1007D4000E94170408950E941503A3E0B0E00C944E
:1007E400FA03A0E30E94010381E28A95F1F70895D8
:1007F400109639F08AEF90E00197F1F7A8951197D8
:10080400C9F708950024AF0DB01D0895F195E19541
:10081400F04008956F2F660F660B762F0895EA1740
:10082400FB07E1E009F0EE270895ED91FC911197A3
:1008340008950590F491E02D08957A936A93FA93BC
:10084400EA9308955A934A933A932A931A930A93EC
:1008540008955D814C813B812A8119810881089525
:00000001FF
